S01E00005072616B74696B756D50656E6767616E7469554153322E7372656396
S113000046C2000065C2000063C2000061C2000075
S11300105FC200005DC200005BC2000059C2000064
S113002057C2000055C2000053C2000051C2000074
S11300304FC200004DC20000BFC70000EAC7000065
S11300400C9436080C9463080C9490080C94BD0826
S11300500C94EA080C9417090C9444090C94710943
S113006037C2000035C2000033C2000031C20000B4
S11300702FC200002DC200002BC2000029C20000C4
S113008027C2000025C2000023C2000021C20000D4
S11300901FC200001DC200001BC2000019C20000E4
S11300A017C2000015C2000013C2000011C20000F4
S11300B00FC200000DC200000BC200000C94600BC4
S11300C00C948D0B0C94BA0B0C94E70B0C94140C3D
S11300D00C94410C0C946E0C0C949B0C0C94C80C5A
S11300E00C94F50CF5C10000F3C10000F1C100004F
S11300F0EFC10000EDC10000EBC10000E9C1000048
S1130100E7C10000E5C10000E3C10000E1C1000057
S1130110DFC10000DDC10000DBC10000D9C1000067
S1130120D7C10000D5C10000D3C10000D1C1000077
S1130130CFC100000C949E090C94CB090C94F809CF
S11301400C94250A0C94520A0C947F0A0C94AC0A61
S11301500C94D90A0C94060B0C94330BB9C100000F
S1130160B7C10000B5C10000B3C10000B1C10000B7
S1130170AFC10000ADC10000ABC10000A9C10000C7
S1130180A7C10000A5C10000A3C10000A1C10000D7
S11301909FC100009DC100009BC1000099C10000E7
S11301A097C1000095C1000093C1000091C10000F7
S11301B00C94220D0C944F0D0C947C0D0C94A90DF1
S11301C00C94D60D0C94030E83C1000081C1000071
S11301D07FC100007DC100007BC1000079C1000027
S11301E077C1000075C1000073C1000071C1000037
S11301F06FC100006DC100006BC100000000000071
S1130200000000202020202000205050500000003A
S1130210005050F850F850502078A07028F020C0BA
S1130220C810204098186090A040A89068602040B2
S1130230000000001020404040201040201010100A
S11302402040005020F8205000002020F8202000FA
S113025000000000602040000000F80000000000E2
S1130260000000606000081020408000708898A89A
S1130270C8887020602020202070708808102040DA
S1130280F8F810201008887010305090F81010F80A
S113029080F008088870304080F0888870F8081072
S11302A020404040708888708888707088887808FA
S11302B010600060600060600000606000602040CA
S11302C0081020402010080000F800F800008040CA
S11302D02010204080708808102000207088086852
S11302E0A8A87070888888F88888F08888F088883A
S11302F0F070888080808870E09088888890E0F82A
S11303008080F08080F8F88080E080808070888031
S113031080988870888888F88888887020202020B1
S11303202070381010101090608890A0C0A09088A1
S1130330808080808080F888D8A888888888888889
S1130340C8A898888870888888888870F08888F019
S113035080808070888888A89068F08888F0A09051
S113036088788080700808F0F820202020202088D9
S113037088888888887088888888885020888888B1
S1130380A8A8D88888885020508888888850202039
S11303902020F80810204080F83820202020203821
S11303A000804020100800E02020202020E0205081
S11303B08800000000000000000000F84020100049
S11303C0000000000070087888788080B0C88888B1
S11303D0F000007080808870080868988888780029
S11303E0007088F88070304840E040404000007859
S11303F0887808308080B0C88888882000602020F1
S113040020701000301010906040404850605048F8
S1130410602020202020700000D0A8A88888000038
S1130420B0C8888888000070888888700000F088C8
S1130430F08080000068987808080000B0C88080C8
S113044080000070807008F04040E0404048300078
S11304500088888898680000888888502000008870
S113046088A8A85000008850205088000088887808
S113047008700000F8102040F810202040202010C0
S11304802020202020202040202010202040112443
S11304901FBECFEFCDBFDFE5DEBF00E00CBF10E233
S11304A0A0E0B0E2E6ECF2E300E00BBF02C007908C
S11304B00D92AC37B107D9F724E2ACE7B0E201C042
S11304C01D92A53CB207E1F70E94CC130C9461196C
S11304D097CD04C0615071098109910961157105B5
S11304E081059105B9F70895BF92CF92DF92EF92FB
S11304F0FF920F931F93CF93DF931F92CDB7DEB775
S113050000E016E06894FF24F3F8F801F68264E052
S113051070E080E090E0DDDFF801F58264E070E0F7
S113052080E090E0D6DF0F2EFBE2BF2EF02DB982E3
S113053080EA99E02ED4C12CD12C760100E412E497
S11305402FE030E043E0BE016F5F7F4F80EA99E027
S11305504FD400E616E0FF24F394F801F682B98242
S1130560BE016F5F7F4F80EA99E05DD4F801F682A7
S1130570E0EAF9E0818185FFFDCF80EA8093A0095C
S1130580E0EAF9E0818186FFFDCFE0EAF9E080E46A
S113059081838081BE016F5F7F4F80EA99E059D4E7
S11305A08BE28983BE016F5F7F4F80EA99E03BD481
S11305B081E080936606E0EAF9E0818185FFFDCF62
S11305C086EA8093A009E0EAF9E0818186FFFDCF05
S11305D0E0EAF9E080E481838081BE016F5F7F4FB0
S11305E080EA99E036D48BE28983BE016F5F7F4F46
S11305F080EA99E018D481E080936606E0EAF9E0A5
S1130600818185FFFDCF88EC8093A009E0EAF9E0C1
S1130610818186FFFDCFE0EAF9E080E48183808177
S1130620BE016F5F7F4F80EA99E013D48BE2898328
S1130630BE016F5F7F4F80EA99E0F5D381E080933C
S11306406606E0EAF9E0818185FFFDCF82EA8093C6
S1130650A009E0EAF9E0818186FFFDCFE0EAF9E054
S113066080E481838081BE016F5F7F4F80EA99E0DF
S1130670F0D38BE28983BE016F5F7F4F80EA99E0FC
S1130680D2D381E080936606E0EAF9E0818185FFB8
S1130690FDCF8FE28093A009E0EAF9E0818186FF33
S11306A0FDCFE0EAF9E080E481838081BE016F5FE1
S11306B07F4F80EA99E0CDD38BE28983BE016F5FDF
S11306C07F4F80EA99E0AFD381E080936606E0EA49
S11306D0F9E0818185FFFDCF88EF8093A009E0EAEE
S11306E0F9E0818186FFFDCFE0EAF9E080E48183CF
S11306F08081BE016F5F7F4F80EA99E0AAD38BE2CD
S11307008983BE016F5F7F4F80EA99E08CD381E0DB
S113071080936606E0EAF9E0818185FFFDCF1092BF
S1130720A009E0EAF9E0818186FFFDCFE0EAF9E083
S113073080E481838081BE016F5F7F4F80EA99E00E
S113074088D38BE28983BE016F5F7F4F80EA99E093
S11307506AD381E080936606E0EAF9E0818185FF4F
S1130760FDCF81E28093A009E0EAF9E0818186FF70
S1130770FDCFE0EAF9E080E481838081BE016F5F10
S11307807F4F80EA99E065D38BE28983BE016F5F76
S11307907F4F80EA99E047D381E080936606E0EAE0
S11307A0F9E0818185FFFDCF81E88093A009E0EA2B
S11307B0F9E0818186FFFDCFE0EAF9E080E48183FE
S11307C08081BE016F5F7F4F80EA99E042D38BE264
S11307D08983BE016F5F7F4F80EA99E024D381E073
S11307E080936606E0EAF9E0818185FFFDCF81E22E
S11307F08093A009E0EAF9E0818186FFFDCFE0EA79
S1130800F9E080E481838081BE016F5F7F4F80EADD
S113081099E01FD38BE28983BE016F5F7F4F80EA2B
S113082099E001D381E080936606E0EAF9E08181F2
S113083085FFFDCF8FEA8093A009E0EAF9E081818A
S113084086FFFDCFE0EAF9E080E481838081BE0188
S11308506F5F7F4F80EA99E0FCD20F90DF91CF91D8
S11308601F910F91FF90EF90DF90CF90BF9008956C
S11308708FEF809370008093710080937200809357
S113088073008093740080937500809376000895BC
S1130890CF93DF931F92CDB7DEB79FB79983F894B8
S11308A09981E82FF0E0E059FF4F6095808168233B
S11308B060839FBF0F90DF91CF910895FF920F93B4
S11308C01F93CF93DF931F92CDB7DEB7082FF62E79
S11308D0142F1AD10F70006B8BE28983BE016F5FF6
S11308E07F4F80EA99E09FD281E080936606E0EA38
S11308F0F9E0918195FFFDCF0093A009E0EAF9E0CA
S1130900818186FFFDCFE0EAF9E080E48183808184
S1130910BE016F5F7F4F80EA99E09BD20F2D0F7766
S113092002950F7000618BE28983BE016F5F7F4F78
S113093080EA99E078D281E080936606E0EAF9E003
S1130940818185FFFDCF0093A009E0EAF9E0818170
S113095086FFFDCFE0EAF9E080E481838081BE0177
S11309606F5F7F4F80EA99E074D20F2D0F708BE296
S11309708983BE016F5F7F4F80EA99E054D281E0A2
S113098080936606E0EAF9E0818185FFFDCF00935C
S1130990A009E0EAF9E0818186FFFDCFE0EAF9E011
S11309A080E481838081BE016F5F7F4F80EA99E09C
S11309B050D28BE28983BE016F5F7F4F80EA99E05A
S11309C032D281E080936506E0EAF9E0818185FF17
S11309D0FDCF1093A009E0EAF9E0818186FFFDCF05
S11309E0E0EAF9E080E48183808181E08093660617
S11309F0BE016F5F7F4F80EA99E02BD20F90DF91A9
S1130A00CF911F910F91FF9008950F931F93CF9350
S1130A10DF931F92CDB7DEB78CE790E270D064DD30
S1130A208BE28983BE016F5F7F4F80EA99E0FBD13F
S1130A3081E080936606E0EAF9E0818185FFFDCFDD
S1130A4080E48093A009E0EAF9E0818186FFFDCF8C
S1130A50E0EAF9E080E481838081BE016F5F7F4F2B
S1130A6080EA99E0F6D100E00AC040E0612F802FCF
S1130A7025DF1F5F1038C9F70F5F043011F010E055
S1130A80F4CF0F90DF91CF911F910F910895FF92B2
S1130A900F931F93CF93DF9388234CF1603238F583
S1130AA0D42FC82FF62EF694F694F69470E088E0CE
S1130AB0F89E60197109112481E090E08C0102C054
S1130AC0000F111F6A95E2F76C2F8F2D2BD0D130B8
S1130AD021F028F0D23031F006C0802B04C00095FC
S1130AE0802301C08027482F6C2F8F2DE7DEDF91F4
S1130AF0CF911F910F91FF90089514C00895809392
S1130B007C2290937D22089520917C2230917D2235
S1130B1090E8899F200D311D1124F901E60FF11D84
S1130B204083089520917C2230917D2290E8899F12
S1130B30200D311D1124F901E60FF11D8081089566
S1130B40FF920F931F93CF93DF93E42FF0E0E80F0E
S1130B50F11DE138F1051CF0C0E84C2F481B44237B
S1130B6009F44AC0D62FD695D695D69570E098E06C
S1130B70D99F601971091124E1E0F0E0DF0102C09E
S1130B80AA0FBB1F6A95E2F7FA2E213021F098F0E4
S1130B90223019F131C0C42F1FEF180F012F0C0F91
S1130BA0602F8D2FAADF4F2D482B602F8D2F86DECF
S1130BB0C150A1F721C0C42F1FEF180FFA2EF094D3
S1130BC0012F0C0F602F8D2F98DF4F2D4823602F9E
S1130BD08D2F74DEC150A1F70FC0C42F1FEF180F63
S1130BE0012F0C0F602F8D2F88DF4F2D4827602F8A
S1130BF08D2F64DEC150A1F7DF91CF911F910F912A
S1130C00FF900895FF920F931F93CF93DF932223B6
S1130C1069F0F42E182FC22FDFEFD60F6D2F6C0F53
S1130C20202F4F2D812F8CDFC150C1F7DF91CF9141
S1130C301F910F91FF900895AF92BF92CF92DF92D0
S1130C40EF92FF920F931F93CF93DF93C82FE62E5B
S1130C50B42E690100E0F901248143816B2D8E2DAE
S1130C60D1DFF6018081811139C08381282F269537
S1130C7026952695877009F02F5FF601A4808C2FA6
S1130C8090E03581831B91092A9D90011124829F54
S1130C90A001839F500D929F500D11240181128158
S1130CA0040F151FF601F380FF20A1F0D0E0C0E08F
S1130CB08E2D8C0F9C2F977021F4F801D4910F5F27
S1130CC01F4FDD231CF441E06B2DE1DEDD0FCF5F10
S1130CD0FC12EECFB394AA94A110E4CFDF91CF918C
S1130CE01F910F91FF90EF90DF90CF90BF90AF9046
S1130CF00895DF92EF92FF920F931F93CF93DF93A8
S1130D00D62E042F7901EC01162F89918A3031F403
S1130D10F70184818F5F080F1D2D09C08D3039F0D4
S1130D209701402F612F88DFF7018381180F888195
S1130D308111EBCFDF91CF911F910F91FF90EF9035
S1130D40DF900895CF93DF93FC0120E030E0C62FBD
S1130D50D0E0DE01022E02C0B595A7950A94E2F711
S1130D60A0FD508B2F5F3F4F31962830310589F716
S1130D7040FF0AC041FF03C0FC01658302C0FC01BF
S1130D806683FC01618302C0FC016283DF91CF9121
S1130D900895803A28E0920721F460E183E078CD59
S1130DA00895803B28E0920721F460E283E070CD4F
S1130DB00895803A29E0920721F460E184E068CD47
S1130DC00895803B29E0920721F460E284E060CD3D
S1130DD00895803A2AE0920721F460E185E058CD35
S1130DE00895803A9B4019F460E186E051CD08955E
S1130DF00F931F93CF93DF9300D000D0CDB7DEB70E
S1130E0009831A832B833C834D831E82BE016F5F4B
S1130E107F4F0E9461112696CDBFDEBFDF91CF9137
S1130E201F910F910895FB018081E82FE695E695C7
S1130E30E69540E2E49FF0011124FA5F877021E017
S1130E4030E0A90102C0440F551F8A95E2F746839A
S1130E500895FB018081E82FE695E695E69540E24A
S1130E60E49FF0011124FA5F877021E030E0A901CA
S1130E7002C0440F551F8A95E2F74583089543E065
S1130E8050E061E080EE97E05DDF43E050E062E037
S1130E9080EE97E057DF43E050E060E180E696E0C3
S1130EA051DF41E050E460E280E696E04BDF40E051
S1130EB05BE160E280E896E045DF40E05BE162E010
S1130EC080EA96E03FDF40E05BE164E080EA96E0A0
S1130ED039DF43E050E062E080E696E033DF43E050
S1130EE050E068E080E696E02DDF43E050E068E003
S1130EF080EA96E027DF43E050E061E080E696E098
S1130F0021DF43E050E068E080E096E01BDF41E051
S1130F1050E060E180E896E015DF43E050E062E0F5
S1130F2080E696E00FDF43E050E068E080E696E07C
S1130F3009DF40E050E064E080E696E003DF43E050
S1130F4050E060E180EA96E0FDDE40E050E061E0E0
S1130F5080E096E0F7DE40E050E064E080E096E078
S1130F60F1DE40E050E062E080E296E0EBDE43E058
S1130F7050E068E080E496E0E5DE40E050E064E0C4
S1130F8080E496E0DFDE43E050E068E080E696E04F
S1130F90D9DE40E050E064E080E696E0D3DE43E052
S1130FA050E068E080E896E0CDDE40E050E064E0A8
S1130FB080E896E0C7CE08951F920F920FB60F9265
S1130FC011240BB60F922F933F934F935F936F931C
S1130FD07F938F939F93AF93BF93EF93FF93E0918E
S1130FE0C422F091C522309709F01995FF91EF9131
S1130FF0BF91AF919F918F917F916F915F914F912D
S11310003F912F910F900BBE0F900FBE0F901F902A
S113101018951F920F920FB60F9211240BB60F92D0
S11310202F933F934F935F936F937F938F939F93EC
S1131030AF93BF93EF93FF93E091C222F091C32249
S1131040309709F01995FF91EF91BF91AF919F915E
S11310508F917F916F915F914F913F912F910F905D
S11310600BBE0F900FBE0F901F9018951F920F92FA
S11310700FB60F9211240BB60F922F933F934F93F9
S11310805F936F937F938F939F93AF93BF93EF93EC
S1131090FF93E091C022F091C122309709F0199595
S11310A0FF91EF91BF91AF919F918F917F916F913C
S11310B05F914F913F912F910F900BBE0F900FBEF8
S11310C00F901F9018951F920F920FB60F92112434
S11310D00BB60F922F933F934F935F936F937F932E
S11310E08F939F93AF93BF93EF93FF93E091BE22AF
S11310F0F091BF22309709F01995FF91EF91BF91BC
S1131100AF919F918F917F916F915F914F913F919B
S11311102F910F900BBE0F900FBE0F901F9018953C
S11311201F920F920FB60F9211240BB60F922F93AA
S11311303F934F935F936F937F938F939F93AF935B
S1131140BF93EF93FF93E091BC22F091BD223097BF
S113115009F01995FF91EF91BF91AF919F918F91F4
S11311607F916F915F914F913F912F910F900BBEA3
S11311700F900FBE0F901F9018951F920F920FB6ED
S11311800F9211240BB60F922F933F934F935F93BB
S11311906F937F938F939F93AF93BF93EF93FF933B
S11311A0E091BA22F091BB22309709F01995FF9192
S11311B0EF91BF91AF919F918F917F916F915F91CB
S11311C04F913F912F910F900BBE0F900FBE0F9038
S11311D01F9018951F920F920FB60F9211240BB601
S11311E00F922F933F934F935F936F937F938F93BC
S11311F09F93AF93BF93EF93FF93E091B822F09145
S1131200B922309709F01995FF91EF91BF91AF91F1
S11312109F918F917F916F915F914F913F912F910A
S11312200F900BBE0F900FBE0F901F9018951F923A
S11312300F920FB60F9211240BB60F922F933F9378
S11312404F935F936F937F938F939F93AF93BF93CA
S1131250EF93FF93E091B622F091B722309709F013
S11312601995FF91EF91BF91AF919F918F917F91CC
S11312706F915F914F913F912F910F900BBE0F9003
S11312800FBE0F901F9018951F920F920FB60F92DA
S113129011240BB60F922F933F934F935F936F9349
S11312A07F938F939F93AF93BF93EF93FF93E091BB
S11312B0B422F091B522309709F01995FF91EF917E
S11312C0BF91AF919F918F917F916F915F914F915A
S11312D03F912F910F900BBE0F900FBE0F901F9058
S11312E018951F920F920FB60F9211240BB60F92FE
S11312F02F933F934F935F936F937F938F939F931A
S1131300AF93BF93EF93FF93E091B222F091B32296
S1131310309709F01995FF91EF91BF91AF919F918B
S11313208F917F916F915F914F913F912F910F908A
S11313300BBE0F900FBE0F901F9018951F920F9227
S11313400FB60F9211240BB60F922F933F934F9326
S11313505F936F937F938F939F93AF93BF93EF9319
S1131360FF93E091B022F091B122309709F01995E2
S1131370FF91EF91BF91AF919F918F917F916F9169
S11313805F914F913F912F910F900BBE0F900FBE25
S11313900F901F9018951F920F920FB60F92112461
S11313A00BB60F922F933F934F935F936F937F935B
S11313B08F939F93AF93BF93EF93FF93E091AE22EC
S11313C0F091AF22309709F01995FF91EF91BF91F9
S11313D0AF919F918F917F916F915F914F913F91C9
S11313E02F910F900BBE0F900FBE0F901F9018956A
S11313F01F920F920FB60F9211240BB60F922F93D8
S11314003F934F935F936F937F938F939F93AF9388
S1131410BF93EF93FF93E091AC22F091AD2230970C
S113142009F01995FF91EF91BF91AF919F918F9121
S11314307F916F915F914F913F912F910F900BBED0
S11314400F900FBE0F901F9018951F920F920FB61A
S11314500F9211240BB60F922F933F934F935F93E8
S11314606F937F938F939F93AF93BF93EF93FF9368
S1131470E091AA22F091AB22309709F01995FF91DF
S1131480EF91BF91AF919F918F917F916F915F91F8
S11314904F913F912F910F900BBE0F900FBE0F9065
S11314A01F9018951F920F920FB60F9211240BB62E
S11314B00F922F933F934F935F936F937F938F93E9
S11314C09F93AF93BF93EF93FF93E091A822F09182
S11314D0A922309709F01995FF91EF91BF91AF912F
S11314E09F918F917F916F915F914F913F912F9138
S11314F00F900BBE0F900FBE0F901F9018951F9268
S11315000F920FB60F9211240BB60F922F933F93A5
S11315104F935F936F937F938F939F93AF93BF93F7
S1131520EF93FF93E091A622F091A722309709F060
S11315301995FF91EF91BF91AF919F918F917F91F9
S11315406F915F914F913F912F910F900BBE0F9030
S11315500FBE0F901F9018951F920F920FB60F9207
S113156011240BB60F922F933F934F935F936F9376
S11315707F938F939F93AF93BF93EF93FF93E091E8
S1131580A422F091A522309709F01995FF91EF91CB
S1131590BF91AF919F918F917F916F915F914F9187
S11315A03F912F910F900BBE0F900FBE0F901F9085
S11315B018951F920F920FB60F9211240BB60F922B
S11315C02F933F934F935F936F937F938F939F9347
S11315D0AF93BF93EF93FF93E091A222F091A322E4
S11315E0309709F01995FF91EF91BF91AF919F91B9
S11315F08F917F916F915F914F913F912F910F90B8
S11316000BBE0F900FBE0F901F9018951F920F9254
S11316100FB60F9211240BB60F922F933F934F9353
S11316205F936F937F938F939F93AF93BF93EF9346
S1131630FF93E091A022F091A122309709F019952F
S1131640FF91EF91BF91AF919F918F917F916F9196
S11316505F914F913F912F910F900BBE0F900FBE52
S11316600F901F9018951F920F920FB60F9211248E
S11316700BB60F922F933F934F935F936F937F9388
S11316808F939F93AF93BF93EF93FF93E0919E2229
S1131690F0919F22309709F01995FF91EF91BF9136
S11316A0AF919F918F917F916F915F914F913F91F6
S11316B02F910F900BBE0F900FBE0F901F90189597
S11316C01F920F920FB60F9211240BB60F922F9305
S11316D03F934F935F936F937F938F939F93AF93B6
S11316E0BF93EF93FF93E0919C22F0919D2230975A
S11316F009F01995FF91EF91BF91AF919F918F914F
S11317007F916F915F914F913F912F910F900BBEFD
S11317100F900FBE0F901F9018951F920F920FB647
S11317200F9211240BB60F922F933F934F935F9315
S11317306F937F938F939F93AF93BF93EF93FF9395
S1131740E0919A22F0919B22309709F01995FF912C
S1131750EF91BF91AF919F918F917F916F915F9125
S11317604F913F912F910F900BBE0F900FBE0F9092
S11317701F9018951F920F920FB60F9211240BB65B
S11317800F922F933F934F935F936F937F938F9316
S11317909F93AF93BF93EF93FF93E0919822F091BF
S11317A09922309709F01995FF91EF91BF91AF916C
S11317B09F918F917F916F915F914F913F912F9165
S11317C00F900BBE0F900FBE0F901F9018951F9295
S11317D00F920FB60F9211240BB60F922F933F93D3
S11317E04F935F936F937F938F939F93AF93BF9325
S11317F0EF93FF93E0919622F0919722309709F0AE
S11318001995FF91EF91BF91AF919F918F917F9126
S11318106F915F914F913F912F910F900BBE0F905D
S11318200FBE0F901F9018951F920F920FB60F9234
S113183011240BB60F922F933F934F935F936F93A3
S11318407F938F939F93AF93BF93EF93FF93E09115
S11318509422F0919522309709F01995FF91EF9118
S1131860BF91AF919F918F917F916F915F914F91B4
S11318703F912F910F900BBE0F900FBE0F901F90B2
S113188018951F920F920FB60F9211240BB60F9258
S11318902F933F934F935F936F937F938F939F9374
S11318A0AF93BF93EF93FF93E0919222F091932231
S11318B0309709F01995FF91EF91BF91AF919F91E6
S11318C08F917F916F915F914F913F912F910F90E5
S11318D00BBE0F900FBE0F901F9018951F920F9282
S11318E00FB60F9211240BB60F922F933F934F9381
S11318F05F936F937F938F939F93AF93BF93EF9374
S1131900FF93E0919022F0919122309709F019957C
S1131910FF91EF91BF91AF919F918F917F916F91C3
S11319205F914F913F912F910F900BBE0F900FBE7F
S11319300F901F9018951F920F920FB60F921124BB
S11319400BB60F922F933F934F935F936F937F93B5
S11319508F939F93AF93BF93EF93FF93E0918E2266
S1131960F0918F22309709F01995FF91EF91BF9173
S1131970AF919F918F917F916F915F914F913F9123
S11319802F910F900BBE0F900FBE0F901F901895C4
S11319901F920F920FB60F9211240BB60F922F9332
S11319A03F934F935F936F937F938F939F93AF93E3
S11319B0BF93EF93FF93E0918C22F0918D223097A7
S11319C009F01995FF91EF91BF91AF919F918F917C
S11319D07F916F915F914F913F912F910F900BBE2B
S11319E00F900FBE0F901F9018951F920F920FB675
S11319F00F9211240BB60F922F933F934F935F9343
S1131A006F937F938F939F93AF93BF93EF93FF93C2
S1131A10E0918A22F0918B22309709F01995FF9179
S1131A20EF91BF91AF919F918F917F916F915F9152
S1131A304F913F912F910F900BBE0F900FBE0F90BF
S1131A401F9018951F920F920FB60F9211240BB688
S1131A500F922F933F934F935F936F937F938F9343
S1131A609F93AF93BF93EF93FF93E0918822F091FC
S1131A708922309709F01995FF91EF91BF91AF91A9
S1131A809F918F917F916F915F914F913F912F9192
S1131A900F900BBE0F900FBE0F901F9018951F92C2
S1131AA00F920FB60F9211240BB60F922F933F9300
S1131AB04F935F936F937F938F939F93AF93BF9352
S1131AC0EF93FF93E0918622F0918722309709F0FB
S1131AD01995FF91EF91BF91AF919F918F917F9154
S1131AE06F915F914F913F912F910F900BBE0F908B
S1131AF00FBE0F901F9018951F920F920FB60F9262
S1131B0011240BB60F922F933F934F935F936F93D0
S1131B107F938F939F93AF93BF93EF93FF93E09142
S1131B208422F0918522309709F01995FF91EF9165
S1131B30BF91AF919F918F917F916F915F914F91E1
S1131B403F912F910F900BBE0F900FBE0F901F90DF
S1131B5018951F920F920FB60F9211240BB60F9285
S1131B602F933F934F935F936F937F938F939F93A1
S1131B70AF93BF93EF93FF93E0918222F09183227E
S1131B80309709F01995FF91EF91BF91AF919F9113
S1131B908F917F916F915F914F913F912F910F9012
S1131BA00BBE0F900FBE0F901F9018951F920F92AF
S1131BB00FB60F9211240BB60F922F933F934F93AE
S1131BC05F936F937F938F939F93AF93BF93EF93A1
S1131BD0FF93E0918022F0918122309709F01995CA
S1131BE0FF91EF91BF91AF919F918F917F916F91F1
S1131BF05F914F913F912F910F900BBE0F900FBEAD
S1131C000F901F9018951F920F920FB60F921124E8
S1131C100BB60F922F933F934F935F936F937F93E2
S1131C208F939F93AF93BF93EF93FF93E0917E22A3
S1131C30F0917F22309709F01995FF91EF91BF91B0
S1131C40AF919F918F917F916F915F914F913F9150
S1131C502F910F900BBE0F900FBE0F901F901895F1
S1131C601F93CF93DF931F921F92CDB7DEB72FB789
S1131C702A83F8941A81282F392F211588E03807F0
S1131C8049F461E083E00E94480464E083E00E9438
S1131C9048044FC0203488E0380749F462E083E008
S1131CA00E94480464E083E00E94480442C0211575
S1131CB089E0380749F461E084E00E94480464E064
S1131CC084E00E94480435C0203489E0380749F490
S1131CD062E084E00E94480464E084E00E944804D6
S1131CE028C021158AE0380749F461E085E00E94A4
S1131CF0480464E085E00E9448041BC020348AE064
S1131D00380749F462E085E00E94480464E085E015
S1131D100E9448040EC021153B4049F461E086E06E
S1131D200E94480464E086E00E94480402C01FBF89
S1131D3010C08091C0248F3F09F4FFCF8FB78983EF
S1131D40F8949981EFEBF4E281818F5F81839FBFE7
S1131D501FBF0F900F90DF91CF911F9108958115B0
S1131D6028E0920729F46093C4227093C522089551
S1131D70803428E0920729F46093B8227093B92242
S1131D800895811529E0920729F46093B022709395
S1131D90B1220895803429E0920729F46093A422A3
S1131DA07093A522089581152AE0920729F460937F
S1131DB09C2270939D22089580342AE0920729F48E
S1131DC06093902270939122089581159B4021F491
S1131DD060938822709389220895FC01918199234C
S1131DE0ECF7808108954F925F926F927F928F9269
S1131DF09F92AF92BF92EF92FF920F931F93CF9354
S1131E007C014A015B0128013901FC01848182FFC4
S1131E1016C0D901C801689412F8B695A79597958C
S1131E2087951694D1F7B901A801032E36E176956A
S1131E306795579547953A95D1F7302D15C0D90137
S1131E40C801689413F8B695A79597958795169445
S1131E50D1F7B901A801032E37E176956795579517
S1131E6047953A95D1F7302D88159905AA05BB05F4
S1131E7008F4A2C084169506A606B70608F49EC008
S1131E80F701848182FD04C0880C991CAA1CBB1C28
S1131E90C301B201A50194010CD72F3F31054105BF
S1131EA0510508F48DC08FEF90E0A0E0B0E0C9EFD9
S1131EB005C0281739074A075B0758F0880F991F90
S1131EC0AA1FBB1FCD3F0CF48160CF5FC73089F7D9
S1131ED04DC0CC230CF04AC0D501C401880F991F12
S1131EE0AA1FBB1F880F991FAA1FBB1F880F991F0A
S1131EF0AA1FBB1F481A590A6A0A7B0ACE3FECF490
S1131F008DEF9FEF8C1B9109C7FD939504C0440C82
S1131F10551C661C771C8A95D2F7D501C401B69569
S1131F20A79597958795BC01CD01640D751D861DF8
S1131F30971DA5019401BDD635C083E08C0FA50182
S1131F40940104C0220F331F441F551F8A95D2F7F2
S1131F50DA01C901B695A79597958795BC01CD017E
S1131F60640D751D861D971DA4D61CC083E08C0FBF
S1131F70A501940104C0220F331F441F551F8A95E5
S1131F80D2F7DA01C901B695A79597958795BC0153
S1131F90CD01640D751D861D971D8BD62150310909
S1131FA041095109832F8F70C295C07FC82BF70157
S1131FB0C783268381E018C080E016C080E014C087
S1131FC0D501C401880F991FAA1FBB1F880F991F31
S1131FD0AA1FBB1F880F991FAA1FBB1F481A590AA3
S1131FE06A0A7B0AC9EF8CCFCF911F910F91FF90A2
S1131FF0EF90BF90AF909F908F907F906F905F9085
S11320004F9008950F931F93CF93DF93EC018B01AF
S1132010009709F403C1803C910529F460E180E054
S11320200E944804FBC0C03881E0D80729F462E06C
S113203080E00E944804F2C0C115E1E0DE0729F403
S113204061E080E00E944804E9C0C038F3E0DF07A3
S113205029F461E081E00E944804E0C0C03983E0D3
S1132060D80729F461E082E00E944804D7C0C11572
S1132070E2E0DE0729F462E081E00E944804CEC079
S1132080C034F2E0DF0729F462E082E00E944804F1
S1132090C5C0C03283E0D80729F464E082E00E941E
S11320A04804BCC0C115E8E0DE0729F461E083E020
S11320B00E944804B3C0C115F9E0DF0729F461E0C8
S11320C084E00E944804AAC0C1158AE0D80729F414
S11320D061E085E00E944804A1C0C115EBE0DE0781
S11320E029F461E086E00E94480498C0C034F8E016
S11320F0DF0729F462E083E00E9448048FC0C03403
S113210089E0D80729F462E084E00E94480486C08C
S1132110C034EAE0DE0729F462E085E00E94480466
S11321207DC0C039F8E0DF0729F464E083E00E9451
S1132130480474C0C03989E0D80729F464E084E015
S11321400E9448046BC0C039EAE0DE0729F464E069
S113215085E00E94480462C0C039FBE0DF0729F42F
S113216064E086E00E94480459C0C03C88E0D80777
S113217029F468E083E00E94480450C0C03CE9E0D0
S1132180DE0729F468E084E00E94480447C0C03AAE
S1132190F8E0DF0729F460E183E00E9448043EC0D0
S11321A0C03A89E0D80729F460E184E00E94480439
S11321B035C0C03AEAE0DE0729F460E185E00E9418
S11321C048042CC0C03AFBE0DF0729F460E186E054
S11321D00E94480423C0C03B88E0D80729F460E289
S11321E083E00E9448041AC0C03BE9E0DE0729F4FA
S11321F060E284E00E94480411C0C038F4E0DF07C4
S113220029F460E483E00E94480408C0C03A84E0F2
S1132210D80721F460E485E00E9448048D818F731F
S11322208D83F80195818481892B9681911198E0A1
S1132230892B8D83F801408151816281738100E88B
S113224014E82EE130E0CE01CEDD9C8198609C83C1
S11322509C8190619C83DF91CF911F910F91089590
S1132260CF92DF92EF92FF920F931F93CF93DF935E
S1132270EC01D901C801B695A7959795879548179C
S113228059076A077B0770F46A017B01CC0CDD1CDB
S1132290EE1CFF1CC901B801A70196010AD5215003
S11322A0310902C020E030E0832F8F708F832E83AA
S11322B0DF91CF911F910F91FF90EF90DF90CF901E
S11322C00895DF92EF92FF920F931F93CF93DF93C2
S11322D01F92CDB7DEB77C018B01009709F4CFC103
S11322E0803C910529F460E180E00E944804C7C164
S11322F080E8E81681E0F80629F462E080E00E94B4
S11323004804BDC1E114E1E0FE0629F461E080E087
S11323100E944804B4C1F0E8EF16F3E0FF0629F484
S113232061E081E00E944804AAC130E9E31633E089
S1132330F30629F461E082E00E944804A0C1E1149C
S113234082E0F80629F462E081E00E94480497C123
S1132350E0E4EE16E2E0FE0629F462E082E00E9488
S113236048048DC1F0E2EF16F3E0FF0629F464E0BF
S113237082E00E94480483C1E11438E0F30629F4A2
S113238061E083E00E9448047AC1E11489E0F80620
S113239029F461E084E00E94480471C1E114EAE098
S11323A0FE0629F461E085E00E94480468C1E11456
S11323B0FBE0FF0629F461E086E00E9448045FC167
S11323C030E4E31638E0F30629F462E083E00E9487
S11323D0480455C180E4E81689E0F80629F462E06F
S11323E084E00E9448044BC1E0E4EE16EAE0FE06F5
S11323F029F462E085E00E94480441C1F0E9EF1647
S1132400F8E0FF0629F464E083E00E94480437C141
S113241030E9E31639E0F30629F464E084E00E942D
S113242048042DC180E9E8168AE0F80629F464E03E
S113243085E00E94480423C1E0E9EE16EBE0FE06C5
S113244029F464E086E00E94480419C1F0ECEF1618
S1132450F8E0FF0629F468E083E00E9448040FC115
S113246030ECE31639E0F30629F468E084E00E94D6
S1132470480405C180EAE81688E0F80669F460E1DA
S113248083E00E944804E0EAF8E084818F7E84833C
S1132490F8012481225053C0F0EAEF16F9E0FF0658
S11324A029F460E184E00E944804E9C030EAE316BC
S11324B03AE0F30629F460E185E00E944804DFC0B5
S11324C080EAE8168BE0F80629F460E186E00E94D1
S11324D04804D5C0E0EBEE16E8E0FE0629F460E21D
S11324E083E00E944804CBC0F0EBEF16F9E0FF064E
S11324F029F460E284E00E944804C1C030E8E31695
S113250034E0F30629F460E483E00E944804B7C091
S113251080EAE81684E0F80629F460E485E00E9485
S11325204804ADC0F70184818F7E8483FB0124813C
S11325302250C701F0EAEF16F8E0FF0649F4809153
S11325404E0684FDA5C00F2EF1E1DF2EF02DA4C0B0
S1132550803B38E0930791F0803AE9E09E0749F424
S113256030916E0634FD9BC00F2EF9E1DF2EF02D65
S113257016C0803BF9E09F07F1F004C00F2EF5E18F
S1132580DF2EF02D803A3AE0930749F480918E06CD
S113259084FD8AC00F2EF1E2DF2EF02D15C0803AA3
S11325A09B4091F48091AE0684FD0AC00F2EF9E29F
S11325B0DF2EF02D09C00F2EFDE1DF2EF02D04C01B
S11325C00F2EFDE2DF2EF02DED2DE695E695E69536
S11325D030E2E39FF0011124FA5F3D2D377081E072
S11325E090E0032E02C0880F991F0A94E2F78183BA
S11325F0223010F040E001C040E4DF015096A30F08
S1132600B11D9FB79983F89439812C9127702C932D
S11326109C91942B9C933FBF8583F7018581806CAB
S11326208583F80184818D7F813029F4F7018581C8
S11326308260858304C0F70185818D7F8583F801DD
S11326408581882329F0F70185818460858304C00E
S1132650F70185818B7F8583F801408151816281F7
S1132660738100E814E82EE130E0C701F9DDF701D9
S11326708481886084838481806184831AC0F701A3
S113268084818F7E8483F80124812250C70160CF26
S11326900F2EF5E1DF2EF02D80EA98E06ACF0F2EA1
S11326A0FDE1DF2EF02D7BCF0F2EF5E2DF2EF02D96
S11326B08BCF0F90DF91CF911F910F91FF90EF90EF
S11326C0DF90089504C06150710981099109611571
S11326D0710581059105B9F7089580918E23909134
S11326E08F23019680938E2390938F2308951092C5
S11326F0A7088CE08093A6081092A30883E0809337
S1132700A50888E18093A4080895CF93DF93C2E9D4
S1132710D3E280EA98E061DB8A3011F08993F9CF43
S113272062E973E28091102090911120E4D2892B08
S113273021F481E08093250610C062E973E2809160
S11327400E2090910F20D7D2892B21F481E0809321
S1132750250603C081E080932606DF91CF9108957A
S113276080E098E07DDA6DE673E180E098E0F7DAE6
S1132770E0E0F8E08181887F81838AE390E086A3AA
S113278097A386818C7F86838681836086838081FC
S1132790807F816080830895CF93DF93CDB7DEB7C8
S11327A02897CDBFDEBF0E943F070E94380487E010
S11327B08093A2000E94050580E18093850664E071
S11327C080E00E944804E0E2F4E0818180FDFDCFD6
S11327D066E176E185E090E075DFC2DF20E030E27B
S11327E040E060E083E190E20E947906E0E4F6E0F4
S11327F021E021838FEF80831482E0E8F6E0808378
S113280080EF848388E0809345068093410684E0CA
S113281080934606809342066ADF67E070E280EAAE
S113282098E0F0DB31E0309321061D821E821F8286
S11328301886812C912C0F2EF2E96F2EF3E27F2E55
S1132840F02D0F2EFFE24F2EF0E25F2EF02D0F2E13
S1132850F6EF2F2EF3E23F2EF02D29823A8201C0AB
S113286045018114910409F01EC1540100E010E0F7
S11328700F2EFAE0EF2EF12CF02D0F2EF6ECCF2ECA
S1132880F2E2DF2EF02D8B829C824701801A910A9E
S11328903CDF80EA98E0A1DA80931220F301808380
S11328A06BE171E480E090E00DDFF301808181331E
S11328B021F0A114B10429F0E7C021E030E02D8318
S11328C03E8367EA70E080E090E0FCDE30E2309323
S11328D0440620E030E248E060E082E290E20E94B8
S11328E079069F928F925F924F921F9289EC8F93F9
S11328F03F922F9209D220E030E240E160E08981EA
S11329009A810E94790666E372E880E090E0DADE5C
S11329100F5F1F4F8FEFE0E2F6E0808310922406F2
S11329208093240662E070E080E090E0CBDE1092B9
S11329302406E0E2F6E010826BEF70E080E090E0C5
S1132940C1DEA0908E23B0908F2367E270E080E018
S113295090E0B8DE7894CDBFDEBF8091280680FD7C
S1132960FCCF80918E2390918F23F89420918E2315
S113297030918F23253631053CF184E690E0809335
S11329809023909391231F928F93E3E4F0E2FF93BB
S1132990EF931F9288EC8F93DF92CF92B5D120E012
S11329A030E248E160E0C6010E94790666E372E81D
S11329B080E090E087DE10928E2310928F23CDBFAB
S11329C0DEBFAB80BC805BC0EF81F885EF2B71F577
S11329D02D813E81232B51F58A199B099C0112F408
S11329E02F5F3F4F359527953F932F9383E490E2D4
S11329F09F938F931F9288EC8F93DF92CF9284D111
S1132A0020E030E248E160E0C6010E94790666E316
S1132A1072E880E090E056DE10928E2310928F23AD
S1132A20CDBFDEBFAA24A394B12C29C09C012A19CE
S1132A303B09C90199230CF40196959587959F93B9
S1132A408F9383E490E29F938F931F9288EC8F93EC
S1132A50DF92CF9259D120E030E248E160E0C60134
S1132A600E94790666E372E880E090E02BDE109223
S1132A708E2310928F23CDBFDEBFAB80BC800A3083
S1132A80110509F002CF04C00A30110509F0E8CE9F
S1132A9080EF809384061D821E821F8218868824FC
S1132AA08394912CDECE31E08316910409F07EC02C
S1132AB000E010E00F2EF3E0EF2EF12CF02D0F2E9E
S1132AC0F0E8AF2EF6E0BF2EF02D6701C01AD10A50
S1132AD01CDE80EA98E081D980931220F301808380
S1132AE06BE171E480E090E0EDDDF30180818133FE
S1132AF009F44DC0F1E08F16910409F04EC067EA65
S1132B0070E080E090E0DEDD20E42093440620E0E5
S1132B1030E248E060E084E590E20E947906DF92CA
S1132B20CF925F924F921F9239EC3F933F922F9234
S1132B30EBD020E030E240E160E089819A810E949C
S1132B4079066BE674E081E090E0BCDD0F5F1F4F17
S1132B50F5018085CDBFDEBF85FD10C031E0309327
S1132B60410681EF848367EA70E080E090E0AADDAB
S1132B70E1E0F0E0EF83F887812C912C033011051C
S1132B8009F0A3CF6894882481F8912C6ACE21E0BF
S1132B9030E02D833E83812C912C0330110509F004
S1132BA060CE6894882481F8912C5BCE32E0831641
S1132BB0910409F056CE00E010E06894AA24A7F826
S1132BC00F2EF9ECBF2EF02D0F2EF0E8CF2EF6E0ED
S1132BD0DF2EF02D0F2EF5E0EF2EF12CF02DE01A64
S1132BE0F10A93DD80EA98E0F8D880931220F3018B
S1132BF080836BE171E480E090E064DDF301808127
S1132C00813309F449C0F2E08F16910409F04AC0F7
S1132C1067EA70E080E090E055DDA092440620E091
S1132C2030E248E060E081E690E20E947906FF929B
S1132C30EF925F924F921F92BF923F922F9264D075
S1132C4020E030E240E160E089819A810E947906C7
S1132C506BE674E081E090E035DD0F5F1F4FF60115
S1132C608085CDBFDEBF85FD10C031E030934106C5
S1132C7081EF848367EA70E080E090E023DDE1E0A7
S1132C80F0E0EF83F887812C912C0530110509F0D1
S1132C90A1CF812C912CE5CD21E030E02D833E8322
S1132CA0812C912C0530110509F0DBCD812C912C60
S1132CB0D8CDA1E21A2EAA1BBB1BFD010DC0AA1F71
S1132CC0BB1FEE1FFF1FA217B307E407F50720F091
S1132CD0A21BB30BE40BF50B661F771F881F991F0C
S1132CE01A9469F760957095809590959B01AC0155
S1132CF0BD01CF010895FB01DC018D910190801984
S1132D000110D9F3990B08950F931F93CF93DF9379
S1132D10CDB7DEB72E97CDBFDEBF0E891F89888D54
S1132D20998D26E02C8309831A8397FF02C080E0E3
S1132D3090E801978D839E83AE01445E5F4F6A8D58
S1132D407B8DCE01019616D04D815E8157FD0AC060
S1132D502F813885421753070CF49A01F801E20FCA
S1132D60F31F10822E96CDBFDEBFDF91CF911F914E
S1132D700F9108952F923F924F925F926F927F929C
S1132D808F929F92AF92BF92CF92DF92EF92FF9277
S1132D900F931F93CF93DF93CDB7DEB72B97CDBFA0
S1132DA0DEBF6C017B018A01FC01168217828381DC
S1132DB081FFBFC1CE0101963C01F6019381F70169
S1132DC093FD859193FF81917F01882309F4ADC11F
S1132DD0853239F493FD859193FF81917F0185328A
S1132DE021F4B60190E0D3D1E8CF912C212C312CE1
S1132DF0FFE1F315D8F08B3279F038F4803279F0B2
S1132E008332A1F4232D20611DC08D3261F0803303
S1132E1069F4232D216016C0832D8260382EE32DA2
S1132E20E4603E2E2AC0F32DF8601DC037FC2DC08F
S1132E3020ED280F2A3040F08E32B9F436FC75C1EB
S1132E40232D2064322E19C036FE06C08AE0989ED7
S1132E50200D1124922E11C0EAE02E9E200D112483
S1132E60222EF32DF0623F2E08C08C3621F4832DE0
S1132E708068382E02C0883641F4F70193FD8591AD
S1132E8093FF81917F018111B3CF982F9F7D95543A
S1132E90933028F40C5F1F4F9FE399830DC0833652
S1132EA031F0833771F0833509F055C020C0F80143
S1132EB0808189830E5F1F4F88248394912C530152
S1132EC012C02801F2E04F0E511CF801A080B1801D
S1132ED036FE03C0692D70E002C06FEF7FEFC501BD
S1132EE04BD14C018201F32DFF773F2E15C02801F1
S1132EF022E0420E511CF801A080B18036FE03C0CE
S1132F00692D70E002C06FEF7FEFC5012AD14C013B
S1132F10F32DF0683F2E820133FC19C0822D90E01E
S1132F2088169906A0F4B60180E290E030D12A9484
S1132F30F5CFF50137FC859137FE81915F01B6012C
S1132F4090E025D121102A9421E0821A910881145D
S1132F50910479F7E1C0843611F0893639F5F80126
S1132F6037FE07C060817181828193810C5F1F4F9E
S1132F7008C060817181072E000C880B990B0E5FCD
S1132F801F4FF32DFF763F2E97FF09C09095809534
S1132F90709561957F4F8F4F9F4FF0683F2E2AE0C9
S1132FA030E0A30130D1882E861844C0853731F42F
S1132FB0232D2F7EB22E2AE030E025C0932D997F59
S1132FC0B92E8F36C1F018F4883579F0AEC0803749
S1132FD019F0883721F0A9C0E92FE061BE2EB4FEB4
S1132FE00DC0FB2DF460BF2E09C034FE0AC0292F8A
S1132FF02660B22E06C028E030E005C020E130E0B3
S113300002C020E132E0F801B7FE07C0608171819F
S1133010828193810C5F1F4F06C06081718180E0C3
S113302090E00E5F1F4FA301EED0882E8618FB2D73
S1133030FF773F2E36FE0DC0232D2E7FA22E89143E
S113304058F434FE0BC032FC09C0832D8E7EA82EAA
S113305005C0B82CA32C03C0B82C01C0B92CA4FE05
S11330600FC0FE01E80DF11D8081803321F49A2DFB
S1133070997EA92E09C0A2FE06C0B394B39404C0DD
S11330808A2D867809F0B394A3FC10C0A0FE06C074
S1133090B21480F4280C922C9B180DC0B21458F46E
S11330A0B60180E290E073D0B394F8CFB21418F470
S11330B02B1802C0982C212CA4FE0FC0B60180E36B
S11330C090E065D0A2FE16C0A1FC03C088E790E0A2
S11330D002C088E590E0B6010CC08A2D867851F0D4
S11330E0A1FE02C08BE201C080E2A7FC8DE2B60122
S11330F090E04DD0891430F4B60180E390E047D0DD
S11331009A94F8CF8A94F301E80DF11D8081B601F9
S113311090E03DD08110F6CF222009F44ECEB601C6
S113312080E290E034D02A94F7CFF601868197812B
S113313002C08FEF9FEF2B96CDBFDEBFDF91CF9103
S11331401F910F91FF90EF90DF90CF90BF90AF90C1
S11331509F908F907F906F905F904F903F902F90B3
S11331600895FC010590615070400110D8F78095D6
S113317090958E0F9F1F0895FC016150704001903F
S11331800110D8F7809590958E0F9F1F08950F9387
S11331901F93CF93DF93FB01238121FD03C08FEFA6
S11331A09FEF2CC022FF16C04681578124813581B0
S11331B04217530744F4A081B1819D012F5F3F4F13
S11331C0208331838C93268137812F5F3F4F268361
S11331D0378314C08B01EC01FB010084F185E02DE1
S11331E01995892BE1F6D80116968D919C91179724
S11331F0019616968D939C931797CE01DF91CF91EC
S11332001F910F910895FA01AA27283051F1203116
S113321081F1E8946F936E7F6E5F7F4F8F4F9F4F66
S1133220AF4FB1E03ED0B4E03CD0670F781F891FA8
S11332309A1FA11D680F791F8A1F911DA11D6A0F76
S1133240711D811D911DA11D20D009F468943F9129
S11332502AE0269F11243019305D3193DEF6CF0128
S11332600895462F4770405D4193B3E00FD0C9F7EE
S1133270F6CF462F4F70405D4A3318F0495D31FD5B
S11332804052419302D0A9F7EACFB4E0A6959795AE
S1133290879577956795BA95C9F700976105710584
S11332A008959B01AC010A2E0694579547953795CE
S11332B02795BA95C9F7620F731F841F951FA01D28
S10932C00895F894FFCF0D
S11332C600FC010607207D802500000300006E2017
S11332D675207844617269616E204A6F73687561FE
S11332E620004C616D7075204D6572616820004345
S11332F66F756E746572203A2025336420446574B4
S1133306696B0050616E6A616E673A2025642063BA
S11333166D2020004C616D7075204B756E696E676B
S1133326004C616D70752048696A617520006261A0
S10F33367761682000617461732000005E
S9030000FC
